:1000000012C024C023C022C021C020C01FC01EC0F7
:100010001DC01CC01BC01AC019C018C017C016C014
:1000200015C014C013C011241FBECFE5D4E0DEBF3D
:10003000CDBF10E0A0E6B0E0E0EBF4E002C0059038
:100040000D92AC3CB107D9F702D030C2D9CFCF93D3
:10005000DF9380E0F3D08FE590E08DD181E090E0F8
:1000600060E070E0C4D085E060E07DD180E690E0A3
:1000700012D188E893E120E731E0F9013197F1F7F7
:100080000197D9F781E090E060E070E0B0D080E0C7
:1000900060E069D188E690E0FED085E061E063D160
:1000A00088E790E0F8D08CED95E020E731E0F901A9
:1000B0003197F1F70197D9F7C0E7D1E063D18136E5
:1000C000C9F481E090E060E070E091D080E060E011
:1000D0004AD182E890E0DFD081E061E044D182E95A
:1000E00090E0D9D088EC90E0FE013197F1F70197CC
:1000F000D9F7E4CF8236C9F481E090E060E070E0A7
:1001000076D080E060E02FD183EA90E0C4D081E037
:1001100061E029D184EB90E0BED088EC90E0FE0154
:100120003197F1F70197D9F7C9CF8336C9F481E048
:1001300090E060E070E05BD081E060E014D181ECA1
:1001400090E0A9D081E061E00ED182E990E0A3D0F7
:1001500088EC90E0FE013197F1F70197D9F7AECF27
:10016000843609F0ABCF81E090E060E070E03FD0F2
:1001700081E060E0F8D081EC90E08DD081E061E03A
:10018000F2D084EB90E087D088EC90E0FE013197CC
:10019000F1F70197D9F792CF84B3807F84BB959A0A
:1001A000969882E08A95F1F722E034E0979A822FC0
:1001B0008A95F1F783B38295807F922F9A95F1F714
:1001C0009798932F9A95F1F7979A922F9A95F1F71E
:1001D00093B3922F9A95F1F79798932F9A95F1F7F9
:1001E00087FDE4CF959884B38F6084BB0895282F52
:1001F000662311F4969801C0969A82E08A95F1F7E9
:10020000979A85B3922F92959F70807F982B95BB7C
:1002100094E0892F8A95F1F79798892F8A95F1F7BD
:10022000979A85B32F70807F822B85BB892F8A9503
:10023000F1F797989A95F1F7AFDF08951F93182F6C
:100240008CE291E020E731E0F9013197F1F7019775
:10025000D9F784B38F6084BB8F9A8E9A8D9A85B3B9
:10026000807F85BB97989598969881E08A95F1F75D
:10027000979AA99A84E0982F9A95F1F797988A957A
:10028000F1F78ADF812F8C6060E0B1DF88E260E007
:10029000AEDF1F910895CF93DF93EC0103C061E0BF
:1002A000A6DF219688818823D1F7DF91CF91089529
:1002B000EF92FF920F931F93DF93CF9300D000D064
:1002C0000F92CDB7DEB79C018B01FE01319685E020
:1002D000DF011D928A95E9F7FE0135960BC0C90131
:1002E0006AE070E0BCD08083C9016AE070E0B7D0FA
:1002F0009B0131972115310591F7BFEF0F3F1B0788
:1003000079F420E030E0AE014F5F5F4F02C02F5F15
:100310003F4FFA01E20FF31F80818823C1F304C02D
:1003200025E030E0201B310B7E010894E11CF11C1C
:10033000E20EF31E890108C0F70181917F01805D03
:1003400061E055DF0F5F1F4F05301105ACF30F90D3
:100350000F900F900F900F90CF91DF911F910F9101
:10036000FF90EF900895883228F4611180648068CE
:1003700060E03DDF089589B990BD86E880BD88EDD5
:100380008AB908955F9BFECF8CB108955D9BFECF27
:100390008CB908950F931F93DF93CF9300D000D0B3
:1003A0000F92CDB7DEB79C018B01FE01319685E03F
:1003B000DF011D928A95E9F7FE0135960BC0C90150
:1003C0006AE070E04CD08083C9016AE070E047D0F9
:1003D0009B0131972115310591F7BFEF0F3F1B07A7
:1003E00071F4A0E0B0E09E012F5F3F4F01C0119675
:1003F000F901EA0FFB1F80818823C9F304C0A5E03F
:10040000B0E0A01BB10BA530B105ACF4AC0FBD1F23
:1004100011968C915D9BFECF805D8CB980E090E958
:10042000FC013197F1F7FC013197F1F7FC013197AD
:10043000F1F70197F1F70F900F900F900F900F9039
:10044000CF91DF911F910F910895FC0104C05D9B36
:10045000FECF8CB9319680818823C9F7089597FB28
:10046000092E07260AD077FD04D00CD006D0002034
:100470001AF4709561957F4F0895F6F790958195E0
:100480009F4F0895AA1BBB1B51E107C0AA1FBB1FAA
:10049000A617B70710F0A61BB70B881F991F5A9510
:1004A000A9F780959095BC01CD010895F894FFCFF0
:1004B00057454C434F4D450044455649434520520E
:1004C0004541445920544F00524543454956452E15
:1004D0002E00204D4554414C20444554454354453D
:1004E00044004D4F54494F4E2044455445435445D4
:1004F000442000204D4554414C204445544543542C
:1005000045442000204E4F204D4F54494F4E20204F
:0C05100000204E4F204D4554414C00008F
:00000001FF
