:100000000C942A000C943F000C943F000C943F0089
:100010000C943F000C943F000C943F000C943F0064
:100020000C943F000C943F000C943F000C943F0054
:100030000C943F000C943F000C943F000C943F0044
:100040000C943F000C943F000C943F000C943F0034
:100050000C943F0011241FBECFE5D4E0DEBFCDBF1E
:1000600010E0A0E6B0E0EEEEF4E002C005900D92E4
:10007000A23BB107D9F70E9441000C9475020C9481
:100080000000CF93DF93D098D89AD198D99A8FE572
:1000900090E00E94D80180E00E94330181E090E06E
:1000A00060E070E00E940B0180E060E00E94CF0100
:1000B00080E690E00E94630188E893E120E731E068
:1000C000F9013197F1F70197D9F7C0E0D8E4C89961
:1000D0001BC0C99919C081E090E060E070E00E9407
:1000E0000B0180E060E00E94CF0188E690E00E9472
:1000F000630181E061E00E94CF0188E790E00E9407
:10010000630181E690E056C0C8991BC0C99B19C025
:1001100081E090E060E070E00E940B0180E060E030
:100120000E94CF0189E890E00E94630181E061E0D4
:100130000E94CF018AE990E00E94630182E690E08C
:1001400039C0C89B1BC0C99919C081E090E060E02C
:1001500070E00E940B0181E060E00E94CF0187EA1D
:1001600090E00E94630181E061E00E94CF0188E796
:1001700090E00E94630183E690E01CC0C89BA7CF7B
:10018000C99BA5CF81E090E060E070E00E940B0188
:1001900081E060E00E94CF0187EA90E00E94630165
:1001A00081E061E00E94CF018AE990E00E94630152
:1001B00084E690E00E94E301CE010197F1F787CF3A
:1001C00084B3807F84BB959A969882E08A95F1F7F4
:1001D00022E034E0979A822F8A95F1F783B38295D3
:1001E000807F922F9A95F1F79798932F9A95F1F730
:1001F000979A922F9A95F1F793B3922F9A95F1F7D8
:100200009798932F9A95F1F787FDE4CF959884B34B
:100210008F6084BB0895282F662311F4969801C03F
:10022000969A82E08A95F1F7979A85B3922F9295E4
:100230009F70807F982B95BB94E0892F8A95F1F76A
:100240009798892F8A95F1F7979A85B32F70807FB9
:10025000822B85BB892F8A95F1F797989A95F1F7AC
:100260000E94E00008951F93182F8CE291E020E790
:1002700031E0F9013197F1F70197D9F784B38F6035
:1002800084BB8F9A8E9A8D9A85B3807F85BB979811
:100290009598969881E08A95F1F7979AA99A84E0C3
:1002A000982F9A95F1F797988A95F1F70E94E000B8
:1002B000812F8C6060E00E940B0188E260E00E9468
:1002C0000B011F910895CF93DF93EC0104C061E00F
:1002D0000E940B01219688818823C9F7DF91CF9175
:1002E0000895EF92FF920F931F93DF93CF9300D067
:1002F00000D00F92CDB7DEB79C018B01FE01319685
:1003000085E0DF011D928A95E9F7FE0135960DC063
:10031000C9016AE070E00E944E028083C9016AE070
:1003200070E00E944E029B0131972115310581F743
:10033000BFEF0F3F1B0779F420E030E0AE014F5FC5
:100340005F4F02C02F5F3F4FFA01E20FF31F808122
:100350008823C1F304C025E030E0201B310B7E016F
:100360000894E11CF11CE20EF31E890109C0F7019B
:1003700081917F01805D61E00E940B010F5F1F4F43
:1003800005301105A4F30F900F900F900F900F9070
:10039000CF91DF911F910F91FF90EF9008958832D8
:1003A00030F461118064806860E00E940B01089560
:1003B00089B990BD86E880BD88ED8AB908955F9BB4
:1003C000FECF8CB108955D9BFECF8CB908950F933D
:1003D0001F93DF93CF9300D000D00F92CDB7DEB73D
:1003E0009C018B01FE01319685E0DF011D928A950B
:1003F000E9F7FE0135960DC0C9016AE070E00E9480
:100400004E028083C9016AE070E00E944E029B01A7
:1004100031972115310581F7BFEF0F3F1B0771F4AD
:10042000A0E0B0E09E012F5F3F4F01C01196F9019F
:10043000EA0FFB1F80818823C9F304C0A5E0B0E068
:10044000A01BB10BA530B105ACF4AC0FBD1F1196CC
:100450008C915D9BFECF805D8CB980E090E9FC01C2
:100460003197F1F7FC013197F1F7FC013197F1F782
:100470000197F1F70F900F900F900F900F90CF9181
:10048000DF911F910F910895FC0104C05D9BFECF89
:100490008CB9319680818823C9F7089597FB092E7E
:1004A00007260AD077FD04D00CD006D000201AF41D
:1004B000709561957F4F0895F6F7909581959F4FC0
:1004C0000895AA1BBB1B51E107C0AA1FBB1FA6179B
:1004D000B70710F0A61BB70B881F991F5A95A9F7ED
:0E04E00080959095BC01CD010895F894FFCF52
:1004EE0057454C434F4D4500204D4554414C2044FB
:1004FE0045544543544544004D4F54494F4E2044B6
:10050E00455445435445442000204D4554414C200C
:10051E0044455445435445442000204E4F204D4FF2
:10052E0054494F4E202000204E4F204D4554414CF3
:02053E000000BB
:00000001FF
